:020000040800F2
:1000000000500020550B00089D0A0008A30A0008B4
:10001000A90A0008AF0A0008B50A0008000000009D
:10002000000000000000000000000000E14B00089C
:10003000BB0A000800000000C14D0008094E00087E
:100040009D0B00089D0B00089D0B00089D0B0008F0
:100050009D0B00089D0B00089D0B00089D0B0008E0
:100060009D0B00089D0B00089D0B00089D0B0008D0
:100070009D0B00089D0B00089D0B00089D0B0008C0
:100080009D0B00089D0B00089D0B00089D0B0008B0
:100090009D0B00089D0B00089D0B00089D0B0008A0
:1000A0009D0B0008C90A00089D0B00089D0B000865
:1000B0009D0B00089D0B00089D0B00089D0B000880
:1000C0009D0B00089D0B00089D0B00089D0B000870
:1000D0009D0B00089D0B00089D0B00089D0B000860
:1000E0009D0B00089D0B00089D0B00080000000000
:1000F0000000000000000000000000000000000000
:0C01000000000000000000005FF808F1A3
:1001100010B5054C237833B9044B13B10448AFF341
:1001200000800123237010BD60000020000000004B
:10013000F85C000808B5034B1BB103490348AFF353
:10014000008008BD0000000064000020F85C00088A
:10015000034613F8012B002AFBD1181A0138704707
:1001600080B485B000AFF860B9607A60FB68064A79
:100170001A60BB68054A1A607B6880221A6000BF5B
:100180001437BD4680BC70477C0000201C01002055
:10019000B0B590B000AF00237B6002E07B68013314
:1001A0007B607B681B4A9342F8DD00F0F9FC00F0AD
:1001B0003BF800F02BF900F093F800F0CFF800F0D6
:1001C000FBF8154B07F124041D460FCD0FC495E82D
:1001D000070084E8070007F124030021184603F014
:1001E00045FE03460D4A13600D4B07F108041D46FA
:1001F0000FCD0FC495E8070084E8070007F1080356
:100200000021184603F032FE0346064A136003F04D
:1002100026FEFEE77F841E001C5D000838050020D6
:10022000405D00083C05002080B594B000AF07F1A8
:10023000280328220021184605F066F807F1140368
:1002400000221A605A609A60DA601A613B1D00222F
:100250001A605A609A60DA600123BB624FF48033FF
:10026000FB6200233B630123BB6302237B644FF4E7
:100270008033BB644FF4E013FB6407F12803184696
:1002800002F0C8FB0346002B01D000F09FFA0F23B9
:100290007B610223BB610023FB614FF480633B62FF
:1002A00000237B6207F114030221184602F034FE9A
:1002B0000346002B01D000F089FA02237B604FF443
:1002C0000043FB603B1D184602F0E4FF0346002B91
:1002D00001D000F07BFA00BF5037BD4680BD000062
:1002E00080B584B000AF3B1D00221A605A609A604E
:1002F000184B194A1A60174B00229A60154B0022BE
:100300001A73144B00221A75124B4FF46022DA61F3
:10031000104B00225A600F4B01221A610D4800F069
:1003200071FC0346002B01D000F050FA03237B60E0
:100330000123BB600023FB603B1D1946054800F00C
:1003400025FF0346002B01D000F040FA00BF103714
:10035000BD4680BD6C0400200024014080B500AF84
:10036000124B134A1A60114B124A5A600F4B00226B
:100370009A600E4B0022DA600C4B4FF480421A61F7
:100380000A4B00225A61094B00229A61074B002256
:10039000DA61064B00221A62044801F007FB0346AB
:1003A000002B01D000F012FA00BF80BD9C04002099
:1003B00000580040A086010080B500AF114B124AE2
:1003C0001A60104B4FF4E1325A600E4B00229A60D3
:1003D0000C4B0022DA600B4B00221A61094B0C22F5
:1003E0005A61084B00229A61064B0022DA610548E7
:1003F00003F0FAFA0346002B01D000F0E7F900BF42
:1004000080BD00BFF00400200038014080B588B0F6
:1004100000AF07F1100300221A605A609A60DA6098
:10042000244B9B69234A43F010039361214B9B6942
:1004300003F01003FB60FB681E4B9B691D4A43F0F1
:10044000200393611B4B9B6903F02003BB60BB68D7
:10045000184B9B69174A43F004039361154B9B6942
:1004600003F004037B607B68124B9B69114A43F0E5
:10047000080393610F4B9B6903F008033B603B68E3
:1004800000224FF400510C4801F078FA4FF4005369
:100490003B6101237B610023BB610323FB6107F107
:1004A00010031946044801F0E5F800BF2037BD46A7
:1004B00080BD00BF001002400010014080B586B032
:1004C00002AF0346FB710B46BB7113467B71BB79D0
:1004D0003B737B797B73FB7999B207F10C024FF088
:1004E000FF3300930223034801F0A4FB00BF103741
:1004F000BD4680BD9C04002080B584B002AF3A6048
:100500001A460346FB710B46BB711346BB80FB7951
:1005100099B2BA1D4FF0FF3300930123084801F050
:1005200089FBFB7999B2BB884FF0FF3200923A68A1
:10053000034801F07DFC00BF0837BD4680BD00BF09
:100540009C04002080B485B000AFF860B9607A6088
:100550003B60FB6801331B781B021AB2FB681B78F7
:100560001BB213431AB2BB681A80BB68B3F90030E0
:100570001F4A82FB03125211DB17D31A1AB2BB684F
:100580001A80FB6803331B781B021AB2FB68023324
:100590001B781BB213431AB27B681A807B68B3F9CD
:1005A0000030134A82FB03125211DB17D31A1AB21E
:1005B0007B681A80FB6805331B781B021AB2FB6844
:1005C00004331B781BB213431AB23B681A803B6892
:1005D000B3F90030064A82FB03125211DB17D31A1B
:1005E0001AB23B681A8000BF1437BD4680BC704702
:1005F0001F85EB5180B500AF264BB3F900301A468A
:100600002549264804F060FE2448FFF7A1FD034673
:100610001A46224B1344224A10681860214BB3F942
:1006200000301A461C49204804F04EFE1E491B4863
:1006300004F072FE1948FFF78BFD03461A46174B6C
:100640001344174A10681860184BB3F900301A4663
:100650001149154804F038FE1349104804F05CFEB7
:100660000E48FFF775FD03461A460C4B134410491C
:100670001A460B461B8813800848FFF769FD03469E
:100680009AB24FF0FF3305490A4803F0FDF900BF65
:1006900080BD00BF1C0300205C5D00082C0300200F
:1006A000605D00081E0300202C04002020030020B1
:1006B000645D0008F004002080B582B000AF78606F
:1006C00008223D215020FFF7F9FE0623084A282181
:1006D0005020FFF711FF074B074A08490448FFF76E
:1006E00031FFFFF787FF642003F00CFCEDE700BF4C
:1006F00024030020200300201E0300201C030020F0
:1007000080B590B000AF78600023FB874FF49673FC
:10071000BB87214800F04EFB4FF0FF311E4800F030
:1007200023FC1D4800F026FD0346FB87FA8FBB8F94
:100730009A4215D2FB8F07F10800184A322104F0C3
:100740008FFD07F108031846FFF702FD03469AB232
:1007500007F108014FF0FF33114803F095F914E059
:10076000FB8F07F108000F4A322104F079FD07F1F1
:1007700008031846FFF7ECFC03469AB207F108019C
:100780004FF0FF33064803F07FF9034800F0C0FB49
:10079000642003F0B7FBBCE76C040020685D000830
:1007A000F0040020905D000880B582B000AF786052
:1007B0007B681B68044A934201D100F007FA00BF2E
:1007C0000837BD4680BD00BF002C014080B400AF9B
:1007D00072B600BFFEE7000080B582B000AF114BDB
:1007E0009B69104A43F0010393610E4B9B6903F030
:1007F00001037B607B680B4BDB690A4A43F0805343
:10080000D361084BDB6903F080533B603B680022F7
:100810000F216FF0010000F002FF00BF0837BD4656
:1008200080BD00BF0010024080B588B000AF786086
:1008300007F1100300221A605A609A60DA607B6840
:100840001B68144A934221D1134B9B69124A43F40B
:1008500000739361104B9B6903F40073FB60FB68AA
:100860000D4B9B690C4A43F0040393610A4B9B694F
:1008700003F00403BB60BB6808233B6103237B6177
:1008800007F110031946054800F0F4FE00BF2037B9
:10089000BD4680BD00240140001002400008014018
:1008A00080B588B000AF786007F1100300221A60AD
:1008B0005A609A60DA607B681B68164A934224D1BA
:1008C000154B9B69144A43F008039361124B9B69D3
:1008D00003F00803FB60FB684FF440633B611223A5
:1008E0007B610323FB6107F1100319460B4800F0FD
:1008F000C1FE094BDB69084A43F48003D361064B10
:10090000DB6903F48003BB60BB6800BF2037BD46D2
:1009100080BD00BF0058004000100240000C0140A4
:1009200080B588B000AF786007F1100300221A602C
:100930005A609A60DA607B681B681C4A934231D126
:100940001B4B9B691A4A43F480439361184B9B6984
:1009500003F48043FB60FB68154B9B69144A43F02A
:1009600004039361124B9B6903F00403BB60BB68F3
:100970004FF400733B6102237B610323FB6107F1AA
:10098000100319460B4800F075FE4FF480633B617D
:1009900000237B610023BB6107F110031946054862
:1009A00000F068FE00BF2037BD4680BD0038014022
:1009B000001002400008014080B58CB000AF7860A4
:1009C0000023BB6200237B62002387F82F302E4B6D
:1009D0009B692D4A43F4006393612B4B9B6903F49D
:1009E0000063BB60BB6807F10C0207F110031146FE
:1009F000184602F001FC02F0EBFBB862BB6A234A26
:100A0000A2FB03239B0C013B7B62214B214A1A6012
:100A10001F4B40F2E732DA601D4A7B6A53601C4B81
:100A200000221A611A4B00229A60194B00229A6127
:100A3000174802F09BFD034687F82F3097F82F30B8
:100A4000002B1BD1124802F0E9FD034687F82F3036
:100A500097F82F30002B11D1192000F0FCFD7B6896
:100A60000F2B08D800227968192000F0D8FD0A4A17
:100A70007B68136002E0012387F82F3097F82F304E
:100A800018463037BD4680BD0010024083DE1B4350
:100A900040050020002C01400400002080B400AF7D
:100AA000FEE780B400AFFEE780B400AFFEE780B49D
:100AB00000AFFEE780B400AFFEE780B400AF00BF38
:100AC000BD4680BC7047000080B500AF024802F010
:100AD000F7FD00BF80BD00BF4005002080B586B097
:100AE00000AF7860144A154BD31A7B617B693B6178
:100AF000134B1B68002B02D1114B124A1A60104B8A
:100B00001A687B6813443A699A4207D204F06AFC77
:100B100003460C221A604FF0FF3309E0084B1B68B4
:100B2000FB60074B1A687B681344054A1360FB6837
:100B300018461837BD4680BD005000200004000054
:100B4000880500203014002080B400AF00BFBD46EF
:100B500080BC7047FFF7F8FF0B480C490C4A002394
:100B600002E0D458C4500433C4188C42F9D3094A63
:100B7000094C002301E013600432A242FBD304F0CD
:100B800037FCFFF705FB70470000002060000020E5
:100B9000385E0008600000202C140020FEE70000F2
:100BA00080B500AF084B1B68074A43F01003136081
:100BB000032000F029FD0F20FFF7FEFEFFF70CFEDB
:100BC0000023184680BD00BF0020024080B400AF63
:100BD000054B1B781A46054B1B681344034A1360E8
:100BE00000BFBD4680BC7047080000208C05002077
:100BF00080B400AF024B1B681846BD4680BC7047EE
:100C00008C05002080B586B000AF78600023FB75AE
:100C100000233B610023BB600023FB607B68002B4B
:100C200001D10123BEE07B689B68002B7B689B6A37
:100C3000002B09D17B680022DA627B68002283F8EE
:100C400024207868FFF7F0FD786800F0F1FB034698
:100C5000FB757B689B6A03F01003002B40F09980C2
:100C6000FB7D002B40F095807B689B6A23F48853C2
:100C700023F0020343F002027B689A627B685A68A1
:100C80007B68DB691A437B681B7B5B001343BA6894
:100C90001343BB607B689B68B3F5807F03D07B68A0
:100CA0009B68012B02D14FF4807300E000233A6966
:100CB00013433B617B681B7D012B19D17B681B7B38
:100CC000002B09D17B689B69013B5A033B691343A5
:100CD00043F400633B610BE07B689B6A43F02002B6
:100CE0007B689A627B68DB6A43F001027B68DA62A8
:100CF0007B681B685B6823F469417B681B683A6901
:100D00000A435A607B681B689A68284B13407A68CC
:100D10001268B9680B4393607B689B68B3F5807F6A
:100D200003D07B689B68012B04D17B681B69013B66
:100D30001B05FB607B681B68DB6A23F470017B6822
:100D40001B68FA680A43DA627B681B689A68184B6A
:100D50001340BA689A420BD17B680022DA627B6842
:100D60009B6A23F0030343F001027B689A6218E058
:100D70007B689B6A23F0120343F010027B689A623F
:100D80007B68DB6A43F001027B68DA620123FB7552
:100D900007E07B689B6A43F010027B689A6201233C
:100DA000FB75FB7D18461837BD4680BDFDF7E1FF9A
:100DB000FE0E1FFF80B584B000AF78600023FB7388
:100DC0007B6893F82430012B01D1022398E07B68E3
:100DD000012283F82420786800F0D0FA0346FB73E0
:100DE000FB7B002B40F087807B689B6A23F4407379
:100DF00023F0010343F480727B689A627B681B686E
:100E0000414A934205D1414B5B6803F47023002BA8
:100E100015D17B689B6A23F480127B689A627B6899
:100E20001B685B6803F48063002B26D07B689B6A99
:100E300023F4405343F480527B689A621DE07B6840
:100E40009B6A43F480127B689A627B681B682F4A16
:100E5000934204D07B681B682B4A93420DD12B4BE5
:100E60005B6803F48063002B07D07B689B6A23F4E4
:100E7000405343F480527B689A627B689B6A03F418
:100E80008053002B06D07B68DB6A23F006027B6868
:100E9000DA6202E07B680022DA627B68002283F873
:100EA00024207B681B686FF002021A607B681B6855
:100EB0009B6803F46023B3F5602F13D17B681B6834
:100EC000114A934205D1114B5B6803F47023002B48
:100ED00008D17B681B689A687B681B6842F4A00293
:100EE0009A600CE07B681B689A687B681B6842F418
:100EF00080129A6003E07B68002283F82420FB7B49
:100F000018461037BD4680BD00280140002401402E
:100F100080B584B000AF78600023FB737B6893F8E2
:100F20002430012B01D102231AE07B68012283F8CF
:100F30002420786800F07CFA0346FB73FB7B002BCF
:100F400009D17B689B6A23F4885323F0010343F0A3
:100F500001027B689A627B68002283F82420FB7B75
:100F600018461037BD4680BD90B587B000AF786099
:100F7000396000237B610023FB6000233B61FFF7A6
:100F800037FE78617B681B689B6803F48073002BD5
:100F90000BD07B689B6A43F020027B689A627B6877
:100FA000002283F824200123D3E07B681B685B6860
:100FB00003F48073002B31D17B681B68DB6A03F478
:100FC0007003002B2AD121E03B68B3F1FF3F1DD015
:100FD0003B68002B07D0FFF70BFE02467B69D31A54
:100FE0003A689A4212D27B681B681B6803F00203BE
:100FF000002B0BD17B689B6A43F004027B689A62EA
:101000007B68002283F824200323A2E07B681B680E
:101010001B6803F00203002BD6D070E04F4B1C6816
:10102000022002F0EDF90346B4FBF3F27B681B6883
:1010300019694B4B0B40002B18D17B681B68D96892
:10104000484B0B40002B11D17B681B681969464B3C
:101050000B40002B08D17B681B68D968434B0B40C1
:10106000002B01D1142320E029231EE07B681B689C
:1010700019693D4B0B40002B06D17B681B68D96872
:101080003A4B0B40002B0DD07B681B681969384B1D
:101090000B40002B08D17B681B68D968344B0B4090
:1010A000002B01D1542300E0FC2302FB03F33B613E
:1010B00021E03B68B3F1FF3F1AD03B68002B07D01B
:1010C000FFF796FD02467B69D31A3A689A420FD21F
:1010D000FB683A699A420BD97B689B6A43F0040229
:1010E0007B689A627B68002283F82420032330E027
:1010F000FB680133FB60FB683A699A42D9D87B6888
:101100001B686FF012021A607B689B6A43F40072DE
:101110007B689A627B681B689B6803F46023B3F565
:10112000602F15D17B681B7B002B11D17B689B6ADC
:1011300023F480727B689A627B689B6A03F4805315
:10114000002B05D17B689B6A43F001027B689A62A1
:10115000002318461C37BD4690BD00BF000000208C
:10116000244992242449920092244912922449004D
:101170004992240080B483B000AF78607B681B681C
:10118000DB6C18460C37BD4680BC704780B485B018
:1011900000AF786039600023FB730023BB607B687D
:1011A00093F82430012B01D10223DCE07B6801227B
:1011B00083F824203B685B68062B1CD87B681B687F
:1011C000596B3B685A6813469B001344053B1F222A
:1011D00002FA03F3DB4319403B6818683B685A681E
:1011E00013469B001344053B00FA03F27B681B681F
:1011F0000A435A633CE03B685B680C2B1CD87B6855
:101200001B68196B3B685A6813469B001344233BC9
:101210001F2202FA03F3DB4319403B6818683B685E
:101220005A6813469B001344233B00FA03F27B6881
:101230001B680A431A631BE07B681B68D96A3B681A
:101240005A6813469B001344413B1F2202FA03F3E2
:10125000DB4319403B6818683B685A6813469B009B
:101260001344413B00FA03F27B681B680A43DA62CD
:101270003B681B68092B1CD97B681B68D9683B68D5
:101280001A6813465B0013441E3B072202FA03F35D
:10129000DB4319403B6898683B681A6813465B005B
:1012A00013441E3B00FA03F27B681B680A43DA60B2
:1012B00019E07B681B6819693B681A6813465B0074
:1012C0001344072202FA03F3DB4319403B68986892
:1012D0003B681A6813465B00134400FA03F27B680C
:1012E0001B680A431A613B681B68102B03D03B68DC
:1012F0001B68112B32D17B681B681D4A934225D194
:101300007B681B689B6803F40003002B26D17B6875
:101310001B689A687B681B6842F400029A603B680D
:101320001B68102B1AD1134B1B68134AA2FB032313
:101330009A0C13469B0013445B00BB6002E0BB6841
:10134000013BBB60BB68002BF9D107E07B689B6A5F
:1013500043F020027B689A620123FB737B680022C2
:1013600083F82420FB7B18461437BD4680BC7047A9
:10137000002401400000002083DE1B4380B584B0C0
:1013800000AF78600023FB600023BB607B681B68B4
:101390009B6803F00103012B40D07B681B689A68AF
:1013A0007B681B6842F001029A601F4B1B681F4A52
:1013B000A2FB03239B0CBB6002E0BB68013BBB604C
:1013C000BB68002BF9D1FFF713FCF8601FE0FFF7B3
:1013D0000FFC0246FB68D31A022B18D97B681B68E6
:1013E0009B6803F00103012B11D07B689B6A43F0DB
:1013F00010027B689A627B68DB6A43F001027B68BB
:10140000DA627B68002283F82420012307E07B68EE
:101410001B689B6803F00103012BD8D100231846F9
:101420001037BD4680BD00BF0000002083DE1B4397
:1014300080B584B000AF78600023FB607B681B68D8
:101440009B6803F00103012B2ED17B681B689A680F
:101450007B681B6822F001029A60FFF7C9FBF86005
:101460001BE0FFF7C5FB0246FB68D31A022B14D919
:101470007B681B689B6803F00103012B0DD17B681F
:101480009B6A43F010027B689A627B68DB6A43F0D8
:1014900001027B68DA62012307E07B681B689B68B6
:1014A00003F00103012BDCD0002318461037BD46A2
:1014B00080BD000080B485B000AF78607B6803F029
:1014C0000703FB600C4BDB68BB60BA684FF6FF0399
:1014D0001340BB60FB681A02BB68134343F0BF6351
:1014E00043F40033BB60044ABB68D36000BF1437C9
:1014F000BD4680BC704700BF00ED00E080B400AF87
:10150000044BDB681B0A03F007031846BD4680BC8A
:10151000704700BF00ED00E080B483B000AF034629
:10152000FB7197F90730002B0BDBFB7903F01F02EF
:10153000064997F907305B09012000FA02F241F8E9
:10154000232000BF0C37BD4680BC704700E100E09F
:1015500080B483B000AF03463960FB7197F9073060
:10156000002B0ADB3B68DAB20C4997F9073012010D
:10157000D2B20B4483F800230AE03B68DAB2084990
:10158000FB7903F00F03043B1201D2B20B441A762D
:1015900000BF0C37BD4680BC704700BF00E100E0D3
:1015A00000ED00E080B489B000AFF860B9607A6007
:1015B000FB6803F00703FB61FB69C3F10703042B1E
:1015C00028BF0423BB61FB690433062B02D9FB69E6
:1015D000033B00E000237B614FF0FF32BB6902FA5E
:1015E00003F3DA43BB681A407B699A404FF0FF313E
:1015F0007B6901FA03F3D9437B680B401343184618
:101600002437BD4680BC704780B582B000AF78609B
:101610007868FFF74FFF00BF0837BD4680BD80B533
:1016200086B000AF0346B9607A60FB7300237B612C
:10163000FFF764FF78617A68B9687869FFF7B2FFED
:10164000024697F90F3011461846FFF781FF00BF99
:101650001837BD4680BD80B582B000AF0346FB7130
:1016600097F907301846FFF757FF00BF0837BD4608
:1016700080BD000080B48BB000AF7860396000237B
:101680007B6200233B6269E101227B6A02FA03F379
:10169000FB613B681B68FA691340BB61BA69FB696F
:1016A0009A4240F058813B685B689A4A93425ED008
:1016B000984A934275D8984A934258D0964A934292
:1016C0006FD8964A934252D0944A934269D8944A2A
:1016D00093424CD0924A934263D8924A934246D066
:1016E000904A93425DD8122B2AD8122B59D801A2C6
:1016F00052F823F06F170008491700085B1700081D
:101700009D170008A3170008A3170008A3170008D7
:10171000A3170008A3170008A3170008A3170008C1
:10172000A3170008A3170008A3170008A3170008B1
:10173000A3170008A3170008511700086517000831
:10174000794A934213D02CE03B68DB683B6229E086
:101750003B68DB6804333B6224E03B68DB680833AA
:101760003B621FE03B68DB680C333B621AE03B687E
:101770009B68002B02D104233B6213E03B689B680B
:10178000012B05D108233B627B68FA691A6109E0E5
:1017900008233B627B68FA695A6103E000233B62DD
:1017A00000E000BFBB69FF2B01D87B6801E07B68CC
:1017B00004337B61BB69FF2B02D87B6A9B0002E08C
:1017C0007B6A083B9B003B617B691A680F213B6980
:1017D00001FA03F3DB431A40396A3B6901FA03F368
:1017E0001A437B691A603B685B6803F08053002BE7
:1017F00000F0B1804D4B9B694C4A43F0010393616B
:101800004A4B9B6903F00103BB60BB68484A7B6A93
:101810009B08023352F82330FB607B6A03F003031A
:101820009B000F2202FA03F3DB43FA681340FB60CC
:101830007B68404A934213D07B683F4A93420DD065
:101840007B683E4A934207D07B683D4A934201D170
:10185000032306E0042304E0022302E0012300E066
:1018600000237A6A02F0030292009340FA6813435D
:10187000FB602F497B6A9B080233FA6841F82320FA
:101880003B685B6803F48013002B06D02D4B9A68ED
:101890002C49BB6913438B6006E02A4B9A68BB69ED
:1018A000DB43284913408B603B685B6803F40013FB
:1018B000002B06D0234BDA682249BB691343CB6067
:1018C00006E0204BDA68BB69DB431E491340CB605E
:1018D0003B685B6803F40033002B06D0194B5A6851
:1018E0001849BB6913434B6006E0164B5A68BB6945
:1018F000DB43144913404B603B685B6803F480335F
:10190000002B21D00F4B1A680E49BB6913430B60A3
:1019100021E000BF00003210000031100000221052
:1019200000002110000012100000111000100240F1
:101930000000014000080140000C0140001001407F
:1019400000140140000401400B4B1A68BB69DB43E3
:10195000094913400B607B6A01337B623B681A685C
:101960007B6A22FA03F3002B7FF48EAE00BF00BF28
:101970002C37BD4680BC70470004014080B483B062
:1019800000AF78600B467B8013467B707B78002B22
:1019900003D07A887B681A6103E07B881A047B682D
:1019A0001A6100BF0C37BD4680BC704780B584B05B
:1019B00000AF78607B68002B01D101232BE17B68AD
:1019C00093F83D30DBB2002B06D17B68002283F810
:1019D0003C207868FEF764FF7B68242283F83D2072
:1019E0007B681B681A687B681B6822F001021A601A
:1019F0007B681B681A687B681B6842F400421A60A7
:101A00007B681B681A687B681B6822F400421A60B6
:101A100001F0CAFBF8607B685B68814A934207D893
:101A2000FB68804A934294BF01230023DBB206E0A7
:101A3000FB687D4A934294BF01230023DBB2002B55
:101A400001D00123E7E0FB68784AA2FB03239B0C4B
:101A5000BB607B681B685B6823F03F017B681B6889
:101A6000BA680A435A607B681B681B6A23F03F010F
:101A70007B685B686A4A934202D8BB68013309E01D
:101A8000BB684FF4967202FB03F3694AA2FB03237F
:101A90009B0901337A6812680B4313627B681B68E9
:101AA000DB6923F44F4222F0FF027B685B685C49EC
:101AB0008B4219D8FB68591E7B685B685B00B1FBE1
:101AC000F3F3591C40F6FC730B40002B0AD0FB6863
:101AD000591E7B685B685B00B1FBF3F30133C3F312
:101AE0000B0351E004234FE07B689B68002B11D16E
:101AF000FB68581E7B6859680B465B000B44B0FBC3
:101B0000F3F30133C3F30B03002B0CBF01230023BA
:101B1000DBB212E0FB68581E7B6859680B469B00DD
:101B20000B4499000B44B0FBF3F30133C3F30B03F5
:101B3000002B0CBF01230023DBB2002B01D00123BB
:101B400022E07B689B68002B0ED1FB68581E7B68E7
:101B500059680B465B000B44B0FBF3F30133C3F34E
:101B60000B0343F400430FE0FB68581E7B68596881
:101B70000B469B000B4499000B44B0FBF3F301337D
:101B8000C3F30B0343F44043796809681343CB6103
:101B90007B681B681B6823F0C0017B68DA697B687F
:101BA0001B6A1A437B681B680A431A607B681B68C0
:101BB0009B6823F4034323F0FF037A6811697A6872
:101BC000D26811437A6812680B4393607B681B6884
:101BD000DB6823F0FF017B685A697B689B691A43C5
:101BE0007B681B680A43DA607B681B681A687B683D
:101BF0001B6842F001021A607B6800221A647B684D
:101C0000202283F83D207B6800221A637B68002233
:101C100083F83E20002318461037BD4680BD00BF24
:101C2000A08601007F841E00FF083D0083DE1B4369
:101C3000D34D621080B588B002AFF8607A601A4662
:101C40000B467B8113463B81FEF7D2FF7861FB6830
:101C500093F83D30DBB2202B40F0E0807B690093AD
:101C6000192301227049F86800F09EFC0346002BFE
:101C700001D00223D3E0FB6893F83C30012B01D163
:101C80000223CCE0FB68012283F83C20FB681B6840
:101C90001B6803F00103012B07D0FB681B681A685F
:101CA000FB681B6842F001021A60FB681B681A6837
:101CB000FB681B6822F400621A60FB68212283F82B
:101CC0003D20FB68102283F83E20FB6800221A6446
:101CD000FB687A685A62FB683A895A85FB685B8DB3
:101CE0009AB2FB681A85FB68504ADA6279897B6987
:101CF0003A6AF86800F008FB0346002B01D0012384
:101D00008DE000233B61FB681B685B693B61FB68FE
:101D10001B689B693B613B6966E07A69396AF868D0
:101D200000F05CFD0346002B0DD0FB681B6C042B00
:101D300007D1FB681B681A68FB681B6842F40072D5
:101D40001A6001236BE0FB685B6A1A78FB681B680A
:101D50001A61FB685B6A5A1CFB685A62FB685B8D00
:101D60009BB2013B9AB2FB685A85FB681B8D013B15
:101D70009AB2FB681A85FB681B685B6903F0040371
:101D8000042B1BD1FB681B8D002B17D0FB685B6AF3
:101D90001A78FB681B681A61FB685B6A5A1CFB684F
:101DA0005A62FB685B8D9BB2013B9AB2FB685A8515
:101DB000FB681B8D013B9AB2FB681A857A69396A08
:101DC000F86800F053FD0346002B0DD0FB681B6C38
:101DD000042B07D1FB681B681A68FB681B6842F478
:101DE00000721A6001231AE0FB681B8D002B94D14E
:101DF000FB681B681A68FB681B6842F400721A6073
:101E0000FB68202283F83D20FB68002283F83E20F7
:101E1000FB68002283F83C20002300E002231846E0
:101E20001837BD4680BD00BF020010000000FFFF54
:101E300080B58CB002AFF8607A601A460B467B81A1
:101E400013463B8100233B62FEF7D2FE7862FB68BB
:101E500093F83D30DBB2202B40F04B827B6A00933D
:101E6000192301227F49F86800F09EFB0346002BEE
:101E700001D002233EE2FB6893F83C30012B01D1F4
:101E8000022337E2FB68012283F83C20FB681B68D1
:101E90001B6803F00103012B07D0FB681B681A685D
:101EA000FB681B6842F001021A60FB681B681A6835
:101EB000FB681B6822F400621A60FB68222283F828
:101EC0003D20FB68102283F83E20FB6800221A6444
:101ED000FB687A685A62FB683A895A85FB685B8DB1
:101EE0009AB2FB681A85FB685F4ADA6279897B6A75
:101EF0003A6BF86800F08AFA0346002B01D0012300
:101F0000F8E1FB681B8D002B13D10023FB61FB68FC
:101F10001B685B69FB61FB681B689B69FB61FB6974
:101F2000FB681B681A68FB681B6842F400721A6041
:101F3000CCE1FB681B8D012B1ED1FB681B681A6866
:101F4000FB681B6822F480621A6072B600BF00232F
:101F5000BB61FB681B685B69BB61FB681B689B69B5
:101F6000BB61BB69FB681B681A68FB681B6842F4AD
:101F700000721A6062B635E0FB681B8D022B1ED121
:101F8000FB681B681A68FB681B6842F400621A60F1
:101F900072B600BF00237B61FB681B685B697B61D5
:101FA000FB681B689B697B617B69FB681B681A681F
:101FB000FB681B6822F480621A6062B612E0FB685C
:101FC0001B681A68FB681B6842F480621A60002371
:101FD0003B61FB681B685B693B61FB681B689B6935
:101FE0003B613B6972E1FB681B8D032B00F21F8193
:101FF000FB681B8D012B23D17A6A396BF86800F0DE
:102000007DFC0346002B01D0012373E1FB681B68B4
:102010001A69FB685B6AD2B21A70FB685B6A5A1C69
:10202000FB685A62FB681B8D013B9AB2FB681A85FC
:10203000FB685B8D9BB2013B9AB2FB685A8545E118
:10204000FB681B8D022B52D17B6A00933B6B0022F5
:102050000649F86800F0A8FA0346002B08D00123CF
:1020600048E100BF020010000000FFFF0400010073
:1020700072B600BFFB681B681A68FB681B6842F4F5
:1020800000721A60FB681B681A69FB685B6AD2B24F
:102090001A70FB685B6A5A1CFB685A62FB681B8DEE
:1020A000013B9AB2FB681A85FB685B8D9BB2013BD2
:1020B0009AB2FB685A8562B600BFFB681B681A6952
:1020C000FB685B6AD2B21A70FB685B6A5A1CFB68D9
:1020D0005A62FB681B8D013B9AB2FB681A85FB684C
:1020E0005B8D9BB2013B9AB2FB685A85EEE07B6A3E
:1020F00000933B6B00228149F86800F055FA0346D3
:10210000002B01D00123F5E0FB681B681A68FB680F
:102110001B6822F480621A6072B600BFFB681B68FD
:102120001A69FB685B6AD2B21A70FB685B6A5A1C58
:10213000FB685A62FB681B8D013B9AB2FB681A85EB
:10214000FB685B8D9BB2013B9AB2FB685A856C4B76
:102150001B68DB086B4AA2FB03231A0A13469B0089
:102160001344DA00D31A3B623B6A013B3B623B6A91
:10217000002B18D1FB6800221A63FB68202283F829
:102180003D20FB68002283F83E20FB681B6C43F077
:102190002002FB681A6462B600BFFB68002283F865
:1021A0003C200123A6E0FB681B685B6903F0040385
:1021B000042BD9D1FB681B681A68FB681B6842F4C2
:1021C00000721A60FB681B681A69FB685B6AD2B20E
:1021D0001A70FB685B6A5A1CFB685A62FB681B8DAD
:1021E000013B9AB2FB681A85FB685B8D9BB2013B91
:1021F0009AB2FB685A8562B600BFFB681B681A6911
:10220000FB685B6AD2B21A70FB685B6A5A1CFB6897
:102210005A62FB681B8D013B9AB2FB681A85FB680A
:102220005B8D9BB2013B9AB2FB685A854EE07A6A9D
:10223000396BF86800F062FB0346002B01D00123E4
:1022400058E0FB681B681A69FB685B6AD2B21A70B7
:10225000FB685B6A5A1CFB685A62FB681B8D013B7A
:102260009AB2FB681A85FB685B8D9BB2013B9AB200
:10227000FB685A85FB681B685B6903F00403042B49
:1022800024D1FB681B8D032B07D1FB681B681A68E0
:10229000FB681B6822F480621A60FB681B681A697D
:1022A000FB685B6AD2B21A70FB685B6A5A1CFB68F7
:1022B0005A62FB681B8D013B9AB2FB681A85FB686A
:1022C0005B8D9BB2013B9AB2FB685A85FB681B8D04
:1022D000002B7FF488AEFB68202283F83D20FB684A
:1022E000002283F83E20FB68002283F83C20002374
:1022F00000E0022318462837BD4680BD04000100D7
:102300000000002089B5F81480B588B002AFF860ED
:102310007A603B600B467B81FB68DB6A7B617B6993
:10232000082B06D07B69012B03D07B6913F5803F16
:1023300008D1FB681B681A68FB681B6842F480724E
:102340001A600BE0FB681B6B122B07D1FB681B6844
:102350001A68FB681B6842F480721A603B6800933D
:102360007B6800224FF00111F86800F01DF9034668
:10237000002B0DD0FB681B681B6803F48073B3F55A
:10238000807F03D1FB684FF400721A64032335E0A9
:10239000FB681B69B3F5804F08D17B89DBB21A4615
:1023A000FB681B6802F0FE021A611BE07B89DB11EF
:1023B000DBB203F00603DBB263F00F03DAB2FB68B3
:1023C0001B681A613B687A680E49F86800F066F984
:1023D0000346002B01D0012310E07B89DAB2FB68B1
:1023E0001B681A613B687A680749F86800F056F97B
:1023F0000346002B01D0012300E0002318461837C4
:10240000BD4680BD080001000200010080B588B013
:1024100002AFF8607A603B600B467B81FB68DB6A49
:102420007B61FB681B681A68FB681B6842F480626A
:102430001A607B69082B06D07B69012B03D07B696E
:1024400013F5803F08D1FB681B681A68FB681B689E
:1024500042F480721A600BE0FB681B6B112B07D1F2
:10246000FB681B681A68FB681B6842F480721A607C
:102470003B6800937B6800224FF00111F86800F080
:1024800093F80346002B0DD0FB681B681B6803F410
:102490008073B3F5807F03D1FB684FF400721A6438
:1024A000032379E0FB681B69B3F5804F08D17B8972
:1024B000DBB243F00103DAB2FB681B681A615FE02C
:1024C0007B89DB11DBB203F00603DBB263F00F03A1
:1024D000DAB2FB681B681A613B687A683049F868B1
:1024E00000F0DCF80346002B01D0012354E07B8987
:1024F000DAB2FB681B681A613B687A682949F86898
:1025000000F0CCF80346002B01D0012344E0002367
:102510003B61FB681B685B693B61FB681B689B69EF
:102520003B613B69FB681B681A68FB681B6842F4E7
:1025300080721A603B6800937B6800224FF00111A3
:10254000F86800F031F80346002B0DD0FB681B68DB
:102550001B6803F48073B3F5807F03D1FB684FF4ED
:1025600000721A64032317E07B89DB11DBB203F0EE
:102570000603DBB263F00E03DAB2FB681B681A6174
:102580003B687A680749F86800F088F80346002B32
:1025900001D0012300E0002318461837BD4680BD56
:1025A000080001000200010080B584B000AFF860AF
:1025B000B9603B601346FB7148E03B68B3F1FF3FF5
:1025C00044D0FEF715FB0246BB69D31A3A689A421B
:1025D00002D33B68002B39D1BB681B0CDBB2012B4B
:1025E0000DD1FB681B685B69DA43BB6813409BB283
:1025F000002B0CBF01230023DBB21A460CE0FB6862
:102600001B689B69DA43BB6813409BB2002B0CBF6D
:1026100001230023DBB21A46FB799A4216D1FB68EC
:1026200000221A63FB68202283F83D20FB68002209
:1026300083F83E20FB681B6C43F02002FB681A64A1
:10264000FB68002283F83C20012323E0BB681B0CBD
:10265000DBB2012B0DD1FB681B685B69DA43BB68F9
:1026600013409BB2002B0CBF01230023DBB21A46A0
:102670000CE0FB681B689B69DA43BB6813409BB2A4
:10268000002B0CBF01230023DBB21A46FB799A42D0
:1026900093D0002318461037BD4680BD80B584B066
:1026A00000AFF860B9607A603B6071E0FB681B685E
:1026B0005B6903F48063B3F5806F23D1FB681B680B
:1026C0001A68FB681B6842F400721A60FB681B689A
:1026D0006FF480625A61FB6800221A63FB68202253
:1026E00083F83D20FB68002283F83E20FB681B6CCA
:1026F00043F00402FB681A64FB68002283F83C2064
:10270000012367E07B68B3F1FF3F41D0FEF770FA29
:1027100002463B68D31A7A689A4202D37B68002B40
:1027200036D1BB681B0CDBB2012B0CD1FB681B68DC
:102730005B69DA43BB6813409BB2002B14BF0123D3
:102740000023DBB20BE0FB681B689B69DA43BB68C4
:1027500013409BB2002B14BF01230023DBB2002BDC
:1027600016D0FB6800221A63FB68202283F83D2004
:10277000FB68002283F83E20FB681B6C43F02002BC
:10278000FB681A64FB68002283F83C20012321E0E7
:10279000BB681B0CDBB2012B0CD1FB681B685B69AF
:1027A000DA43BB6813409BB2002B14BF0123002304
:1027B000DBB20BE0FB681B689B69DA43BB68134024
:1027C0009BB2002B14BF01230023DBB2002B7FF44C
:1027D0006DAF002318461037BD4680BD80B584B06C
:1027E00000AFF860B9607A6034E0F86800F0E3F8B0
:1027F0000346002B01D0012334E0BB68B3F1FF3F57
:1028000028D0FEF7F5F902467B68D31ABA689A42D7
:1028100002D3BB68002B1DD1FB681B685B6903F00A
:102820008003802B16D0FB6800221A63FB682022ED
:1028300083F83D20FB68002283F83E20FB681B6C78
:1028400043F02002FB681A64FB68002283F83C20F6
:10285000012307E0FB681B685B6903F08003802BA2
:10286000C3D1002318461037BD4680BD80B584B063
:1028700000AFF860B9607A6034E0F86800F09BF867
:102880000346002B01D0012334E0BB68B3F1FF3FC6
:1028900028D0FEF7ADF902467B68D31ABA689A428F
:1028A00002D3BB68002B1DD1FB681B685B6903F07A
:1028B0000403042B16D0FB6800221A63FB68202255
:1028C00083F83D20FB68002283F83E20FB681B6CE8
:1028D00043F02002FB681A64FB68002283F83C2066
:1028E000012307E0FB681B685B6903F00403042B0A
:1028F000C3D1002318461037BD4680BD80B584B0D3
:1029000000AFF860B9607A6049E0FB681B685B69FA
:1029100003F01003102B19D1FB681B686FF0100235
:102920005A61FB6800221A63FB68202283F83D206D
:10293000FB68002283F83E20FB681A6CFB681A646F
:10294000FB68002283F83C20012330E0FEF750F9B9
:1029500002467B68D31ABA689A4202D3BB68002B3E
:102960001DD1FB681B685B6903F04003402B16D048
:10297000FB6800221A63FB68202283F83D20FB6875
:10298000002283F83E20FB681B6C43F02002FB68AA
:102990001A64FB68002283F83C20012307E0FB68EF
:1029A0001B685B6903F04003402BAED1002318463F
:1029B0001037BD4680BD80B483B000AF78607B68BF
:1029C0001B685B6903F48063B3F5806F1BD17B6880
:1029D0001B686FF480625A617B6800221A637B680F
:1029E000202283F83D207B68002283F83E207B680C
:1029F0001B6C43F004027B681A647B68002283F836
:102A00003C20012300E0002318460C37BD4680BC63
:102A10007047000080B586B000AF78607B68002BFF
:102A200001D1012372E27B681B6803F00103002BD4
:102A300000F08780924B5B6803F00C03042B0CD0F2
:102A40008F4B5B6803F00C03082B12D18C4B5B6837
:102A500003F48033B3F5803F0BD1894B1B6803F43B
:102A60000033002B6CD07B685B68002B68D101239E
:102A70004CE27B685B68B3F5803F06D1804B1B68F6
:102A80007F4A43F4803313602EE07B685B68002B41
:102A90000CD17B4B1B687A4A23F480331360784B4C
:102AA0001B68774A23F4802313601DE07B685B6812
:102AB000B3F5A02F0CD1724B1B68714A43F48023ED
:102AC00013606F4B1B686E4A43F4803313600BE056
:102AD0006B4B1B686A4A23F480331360684B1B6896
:102AE000674A23F4802313607B685B68002B13D054
:102AF000FEF77EF8386108E0FEF77AF802463B6997
:102B0000D31A642B01D9032300E25D4B1B6803F445
:102B10000033002BF0D014E0FEF76AF8386108E0CB
:102B2000FEF766F802463B69D31A642B01D90323EA
:102B3000ECE1534B1B6803F40033002BF0D100E0B1
:102B400000BF7B681B6803F00203002B63D04C4B73
:102B50005B6803F00C03002B0BD0494B5B6803F060
:102B60000C03082B1CD1464B5B6803F48033002B0D
:102B700016D1434B1B6803F00203002B05D07B6882
:102B80001B69012B01D00123C0E13D4B1B6823F0E1
:102B9000F8027B685B69DB00394913430B603AE05C
:102BA0007B681B69002B20D0364B01221A60FEF790
:102BB0001FF8386108E0FEF71BF802463B69D31A9C
:102BC000022B01D90323A1E12D4B1B6803F0020363
:102BD000002BF0D02A4B1B6823F0F8027B685B695E
:102BE000DB00274913430B6015E0264B00221A60D7
:102BF000FDF7FEFF386108E0FDF7FAFF02463B698A
:102C0000D31A022B01D9032380E11D4B1B6803F06B
:102C10000203002BF0D17B681B6803F00803002B34
:102C20003AD07B689B69002B19D0174B01221A60A0
:102C3000FDF7DEFF386108E0FDF7DAFF02463B6989
:102C4000D31A022B01D9032360E10D4B5B6A03F019
:102C50000203002BF0D0012000F0FEFA1CE00A4B2A
:102C600000221A60FDF7C4FF38610FE0FDF7C0FFD6
:102C700002463B69D31A022B08D9032346E100BF61
:102C8000001002400000424280044242924B5B6AC4
:102C900003F00203002BE9D17B681B6803F00403F7
:102CA000002B00F0A6800023FB758B4BDB6903F043
:102CB0008053002B0DD1884BDB69874A43F080534A
:102CC000D361854BDB6903F08053BB60BB68012394
:102CD000FB75824B1B6803F48073002B18D17F4B6C
:102CE0001B687E4A43F480731360FDF781FF3861EF
:102CF00008E0FDF77DFF02463B69D31A642B01D93A
:102D0000032303E1754B1B6803F48073002BF0D0A1
:102D10007B68DB68012B06D16F4B1B6A6E4A43F060
:102D2000010313622DE07B68DB68002B0CD16A4B3A
:102D30001B6A694A23F001031362674B1B6A664AE8
:102D400023F0040313621CE07B68DB68052B0CD1C5
:102D5000614B1B6A604A43F0040313625E4B1B6ABB
:102D60005D4A43F0010313620BE05B4B1B6A5A4A56
:102D700023F001031362584B1B6A574A23F00403E4
:102D800013627B68DB68002B15D0FDF731FF3861DB
:102D90000AE0FDF72DFF02463B69D31A41F2883263
:102DA000934201D90323B1E04B4B1B6A03F00203AA
:102DB000002BEED014E0FDF71BFF38610AE0FDF7B1
:102DC00017FF02463B69D31A41F28832934201D978
:102DD00003239BE0404B1B6A03F00203002BEED160
:102DE000FB7D012B05D13C4BDB693B4A23F0805333
:102DF000D3617B68DB69002B00F08780364B5B6812
:102E000003F00C03082B61D07B68DB69022B46D1F1
:102E1000334B00221A60FDF7EBFE386108E0FDF746
:102E2000E7FE02463B69D31A022B01D903236DE06A
:102E3000294B1B6803F00073002BF0D17B681B6AE1
:102E4000B3F5803F08D1244B5B6823F400327B68E4
:102E50009B68214913434B601F4B5B6823F474123A
:102E60007B68196A7B685B6A0B431B4913434B60A1
:102E70001B4B01221A60FDF7BBFE386108E0FDF72D
:102E8000B7FE02463B69D31A022B01D903233DE06A
:102E9000114B1B6803F00073002BF0D035E0104B92
:102EA00000221A60FDF7A4FE386108E0FDF7A0FEDD
:102EB00002463B69D31A022B01D9032326E0064BB5
:102EC0001B6803F00073002BF0D11EE07B68DB6908
:102ED000012B07D1012319E00010024000700040CF
:102EE000600042420B4B5B68FB60FB6803F480327E
:102EF0007B681B6A9A4206D1FB6803F470127B68F8
:102F00005B6A9A4201D0012300E00023184618377B
:102F1000BD4680BD0010024080B584B000AF78602F
:102F200039607B68002B01D10123D0E06A4B1B681C
:102F300003F007033A689A4210D9674B1B6823F0E5
:102F4000070265493B6813430B60634B1B6803F042
:102F500007033A689A4201D00123B8E07B681B68F6
:102F600003F00203002B20D07B681B6803F00403EE
:102F7000002B05D0594B5B68584A43F4E06353601B
:102F80007B681B6803F00803002B05D0534B5B687C
:102F9000524A43F460535360504B5B6823F0F00295
:102FA0007B689B684D4913434B607B681B6803F04B
:102FB0000103002B40D07B685B68012B07D1474B96
:102FC0001B6803F40033002B15D101237FE07B68DD
:102FD0005B68022B07D1414B1B6803F00073002B89
:102FE00009D1012373E03D4B1B6803F00203002B62
:102FF00001D101236BE0394B5B6823F003027B684E
:103000005B68364913434B60FDF7F2FDF8600AE058
:10301000FDF7EEFD0246FB68D31A41F28832934277
:1030200001D9032353E02D4B5B6803F00C027B684E
:103030005B689B009A42EBD1274B1B6803F00703A8
:103040003A689A4210D2244B1B6823F007022249A7
:103050003B6813430B60204B1B6803F007033A687F
:103060009A4201D0012332E07B681B6803F004031D
:10307000002B08D0194B5B6823F4E0627B68DB68A7
:10308000164913434B607B681B6803F00803002B51
:1030900009D0124B5B6823F460527B681B69DB002C
:1030A0000E4913434B6000F021F802460B4B5B685E
:1030B0001B0903F00F030A49CB5C22FA03F3094A08
:1030C0001360094B1B681846FDF776FC0023184671
:1030D0001037BD4680BD00BF0020024000100240F6
:1030E000BC5D0008000000200400002080B487B010
:1030F00000AF0023FB600023BB6000237B61002343
:103100007B6000233B611E4B5B68FB60FB6803F048
:103110000C03042B02D0082B03D027E0194B3B6192
:1031200027E0FB689B0C03F00F03174AD35C7B601E
:10313000FB6803F48033002B10D0114B5B685B0CF1
:1031400003F00103114AD35CBB607B680D4A03FBAB
:1031500002F2BB68B2FBF3F37B6104E07B680C4ACC
:1031600002FB03F37B617B693B6102E0054B3B6142
:1031700000BF3B6918461C37BD4680BC704700BF86
:103180000010024000127A00D45D0008E45D0008DF
:1031900000093D0080B400AF024B1B681846BD46D5
:1031A00080BC70470000002080B500AFFFF7F2FF41
:1031B0000246054B5B681B0A03F007030349CB5C1F
:1031C00022FA03F3184680BD00100240CC5D0008CF
:1031D00080B500AFFFF7DEFF0246054B5B68DB0AF8
:1031E00003F007030349CB5C22FA03F3184680BDC2
:1031F00000100240CC5D000880B483B000AF78605E
:1032000039607B680F221A60114B5B6803F0030280
:103210007B685A600E4B5B6803F0F0027B689A6033
:103220000B4B5B6803F4E0627B68DA60084B5B6819
:10323000DB0803F4E0627B681A61064B1B6803F04D
:1032400007023B681A6000BF0C37BD4680BC704760
:10325000001002400020024080B485B000AF7860CA
:103260000A4B1B680A4AA2FB03235B0A7A6802FB2B
:1032700003F3FB6000BFFB685A1EFA60002BF9D114
:1032800000BF00BF1437BD4680BC7047000000205F
:10329000D34D621080B586B000AF786000233B61EB
:1032A0000023FB607B681B6803F00103002B7DD0CB
:1032B0000023FB754F4BDB6903F08053002B0DD1CE
:1032C0004C4BDB694B4A43F08053D361494BDB697C
:1032D00003F08053BB60BB680123FB75464B1B6842
:1032E00003F48073002B18D1434B1B68424A43F40C
:1032F00080731360FDF77CFC386108E0FDF778FC13
:1033000002463B69D31A642B01D903236DE03A4B83
:103310001B6803F48073002BF0D0364B1B6A03F458
:103320004073FB60FB68002B2ED07B685B6803F466
:103330004073FA689A4227D02E4B1B6A23F44073DD
:10334000FB602E4B01221A602C4B00221A60294A86
:10335000FB681362FB6803F00103002B14D0FDF738
:1033600047FC38610AE0FDF743FC02463B69D31A8B
:1033700041F28832934201D9032336E01D4B1B6A88
:1033800003F00203002BEED01A4B1B6A23F44072A9
:103390007B685B68174913430B62FB7D012B05D1EA
:1033A000144BDB69134A23F08053D3617B681B689D
:1033B00003F00203002B08D00E4B5B6823F440425D
:1033C0007B689B680B4913434B607B681B6803F069
:1033D0001003002B08D0074B5B6823F480027B6846
:1033E000DB68044913434B60002318461837BD4679
:1033F00080BD00BF00100240007000404004424207
:1034000080B588B000AF786000237B610023FB614A
:1034100000233B610023FB600023BB617B68102B12
:103420000AD07B68102B00F28A807B68012B45D084
:103430007B68022B75D082E0464B5B68FB60454B96
:103440001B6803F08073002B7BD0FB689B0C03F0A0
:103450000F03414AD35C3B61FB6803F48033002BCC
:1034600015D03C4B5B685B0C03F001033B4AD35C1B
:103470007B61FB6803F48033002B0DD0384A7B69F5
:10348000B2FBF3F23B6902FB03F3FB6104E03B692F
:10349000344A02FB03F3FB612E4B5B6803F48003A9
:1034A000B3F5800F02D1FB69BB614AE0FB695B00A9
:1034B0002D4AA2FB03235B08BB6142E0254B1B6A3C
:1034C000FB60FB6803F44073B3F5807F08D1FB68B1
:1034D00003F00203002B03D04FF40043BB611FE055
:1034E000FB6803F44073B3F5007F09D1194B5B6AA5
:1034F00003F00203002B03D049F64043BB610FE009
:10350000FB6803F44073B3F5407F1CD1114B1B687B
:1035100003F40033002B16D04FF22443BB6112E0BA
:1035200011E0FFF755FE02460A4B5B689B0B03F068
:10353000030301335B00B2FBF3F3BB6104E000BFA4
:1035400002E000BF00E000BFBB6918462037BD465F
:1035500080BD00BF00100240E85D0008F85D000873
:1035600000127A0000093D00ABAAAAAA80B582B079
:1035700000AF78607B68002B01D1012341E07B68BC
:1035800093F83D30DBB2002B06D17B68002283F834
:103590003C20786800F039F87B68022283F83D20EF
:1035A0007B681A687B6804331946104600F09CF962
:1035B0007B68012283F846207B68012283F83E2045
:1035C0007B68012283F83F207B68012283F840203A
:1035D0007B68012283F841207B68012283F8422026
:1035E0007B68012283F843207B68012283F8442012
:1035F0007B68012283F845207B68012283F83D2007
:10360000002318460837BD4680BD80B483B000AFA4
:10361000786000BF0C37BD4680BC704780B485B071
:1036200000AF78607B6893F83D30DBB2012B01D0AE
:1036300001233AE07B68022283F83D207B681B6807
:10364000DA687B681B6842F00102DA607B681B68FD
:10365000184A93420ED07B681B68B3F1804F09D0A3
:103660007B681B68144A934204D07B681B68134A2A
:10367000934211D17B681B689B6803F00703FB60D2
:10368000FB68062B10D07B681B681A687B681B6878
:1036900042F001021A6007E07B681B681A687B68C9
:1036A0001B6842F001021A60002318461437BD4619
:1036B00080BC7047002C014000040040000800401E
:1036C00080B584B000AF78607B681B68DB68FB6006
:1036D0007B681B681B69BB60BB6803F00203002B9F
:1036E00020D0FB6803F00203002B1BD07B681B6813
:1036F0006FF002021A617B6801221A777B681B68EF
:103700009B6903F00303002B03D0786800F0D1F825
:1037100005E0786800F0C4F8786800F0D3F87B68BA
:1037200000221A77BB6803F00403002B20D0FB684B
:1037300003F00403002B1BD07B681B686FF00402AE
:103740001A617B6802221A777B681B689B6903F405
:103750004073002B03D0786800F0ABF805E0786880
:1037600000F09EF8786800F0ADF87B6800221A77C8
:10377000BB6803F00803002B20D0FB6803F00803AC
:10378000002B1BD07B681B686FF008021A617B68F6
:1037900004221A777B681B68DB6903F00303002BA4
:1037A00003D0786800F085F805E0786800F078F8D4
:1037B000786800F087F87B6800221A77BB6803F00E
:1037C0001003002B20D0FB6803F01003002B1BD04C
:1037D0007B681B686FF010021A617B6808221A77F9
:1037E0007B681B68DB6903F44073002B03D07868A7
:1037F00000F05FF805E0786800F052F8786800F0B3
:1038000061F87B6800221A77BB6803F00103002B84
:103810000CD0FB6803F00103002B07D07B681B680A
:103820006FF001021A617868FCF7BEFFBB6803F015
:103830008003002B0CD0FB6803F08003002B07D023
:103840007B681B686FF080021A61786800F0C3F82B
:10385000BB6803F04003002B0CD0FB6803F040036F
:10386000002B07D07B681B686FF040021A617868F4
:1038700000F031F8BB6803F02003002B0CD0FB688C
:1038800003F02003002B07D07B681B686FF0200239
:103890001A61786800F096F800BF1037BD4680BD09
:1038A00080B483B000AF786000BF0C37BD4680BCE9
:1038B000704780B483B000AF786000BF0C37BD465E
:1038C00080BC704780B483B000AF786000BF0C3715
:1038D000BD4680BC704780B483B000AF786000BF45
:1038E0000C37BD4680BC704780B485B000AF7860AF
:1038F00039607B681B68FB607B682F4A93420BD062
:103900007B68B3F1804F07D07B682C4A934203D089
:103910007B682B4A934208D1FB6823F07003FB605D
:103920003B685B68FA681343FB607B68224A9342FA
:103930000BD07B68B3F1804F07D07B681F4A93425E
:1039400003D07B681E4A934208D1FB6823F440737E
:10395000FB603B68DB68FA681343FB60FB6823F09D
:1039600080023B685B691343FB607B68FA681A60FE
:103970003B689A687B68DA623B681A687B689A627F
:103980007B680D4A934203D13B681A697B681A63CE
:103990007B6801225A617B681B6903F00103002BDD
:1039A00005D07B681B6923F001027B681A6100BFA8
:1039B0001437BD4680BC7047002C01400004004015
:1039C0000008004080B483B000AF786000BF0C37BF
:1039D000BD4680BC704780B483B000AF786000BF44
:1039E0000C37BD4680BC704780B582B000AF7860B0
:1039F0007B68002B01D1012342E07B6893F84130C2
:103A0000DBB2002B06D17B68002283F84020786867
:103A1000FCF786FF7B68242283F841207B681B68C3
:103A2000DA687B681B6822F40052DA60786800F07C
:103A300071F97B681B681A697B681B6822F49042E5
:103A40001A617B681B685A697B681B6822F02A022E
:103A50005A617B681B68DA687B681B6842F4005215
:103A6000DA607B6800225A647B68202283F8412058
:103A70007B68202283F842207B6800225A6300235F
:103A800018460837BD4680BD80B58AB002AFF860E1
:103A9000B9603B601346FB8000237B61FB6893F8B1
:103AA0004130DBB2202B75D1BB68002B02D0FB88E4
:103AB000002B01D101236EE0FB6800225A64FB68F1
:103AC000212283F84120FDF793F87861FB68FA889A
:103AD0009A84FB68FA88DA84FB689B68B3F5805F98
:103AE00008D1FB681B69002B04D10023FB61BB6874
:103AF000BB6103E0BB68FB610023BB612EE03B6858
:103B000000937B6900228021F86800F048F80346A2
:103B1000002B05D0FB68202283F8412003233AE0E4
:103B2000FB69002B0BD1BB691B881A46FB681B681D
:103B3000C2F308025A60BB690233BB6107E0FB694C
:103B40001A78FB681B685A60FB690133FB61FB68EC
:103B5000DB8C9BB2013B9AB2FB68DA84FB68DB8C9E
:103B60009BB2002BCBD13B6800937B6900224021A4
:103B7000F86800F014F80346002B05D0FB682022FB
:103B800083F84120032306E0FB68202283F84120CC
:103B9000002300E0022318462037BD4680BD80B5D3
:103BA00086B000AFF860B9603B601346FB713BE044
:103BB0003B6AB3F1FF3F37D0FDF71AF802463B6886
:103BC000D31A3A6A9A4202D33B6A002B01D10323EB
:103BD0003AE0FB681B68DB6803F00403002B23D08A
:103BE000BB68802B20D0BB68402B1DD0FB681B68B6
:103BF0001B6803F00803082B16D100237B61FB68C8
:103C00001B681B687B61FB681B685B687B617B6969
:103C1000F86800F01DF8FB6808225A64FB6800226F
:103C200083F8402001230FE0FB681B681A68BB681B
:103C30001340BA689A420CBF01230023DBB21A4634
:103C4000FB799A42B4D0002318461837BD4680BD90
:103C500080B495B000AF78607B681B680C337B63E1
:103C60007B6B53E8003F3B633B6B23F49073FB6437
:103C70007B681B680C33FA6C3A64FB63F96B3A6C33
:103C800041E80023BB63BB6B002BE5D17B681B685D
:103C900014333B623B6A53E8003FFB61FB6923F04E
:103CA0000103BB647B681B681433BA6CFA62BB62A5
:103CB000B96AFA6A41E800237B627B6A002BE5D18E
:103CC0007B681B6B012B19D17B681B680C33FB6075
:103CD000FB6853E8003FBB60BB6823F010037B64C4
:103CE0007B681B680C337A6CBA617B617969BA694D
:103CF00041E800233B613B69002BE5D17B68202232
:103D000083F842207B6800221A6300BF5437BD4607
:103D100080BC704780B584B000AF78607B681B685A
:103D20001B6923F440517B68DA687B681B680A438F
:103D30001A617B689A687B681B691A437B685B69B8
:103D40001343BB607B681B68DB6823F4B05323F02C
:103D50000C037A681268B9680B43D3607B681B68F0
:103D60005B6923F440717B689A697B681B680A432E
:103D70005A617B681B682C4A934203D1FFF728FAEB
:103D8000F86002E0FFF710FAF860FA6813469B004B
:103D900013449A001A447B685B689B00B2FBF3F300
:103DA000224AA2FB03235B091901FA6813469B0010
:103DB00013449A001A447B685B689B00B2FBF3F2E1
:103DC0001A4BA3FB02035B09642000FB03F3D31A25
:103DD0001B013233154AA2FB03235B0903F0F003F6
:103DE0001944FA6813469B0013449A001A447B68EE
:103DF0005B689B00B2FBF3F20C4BA3FB02035B0975
:103E0000642000FB03F3D31A1B013233074AA2FBE1
:103E100003235B0903F00F027B681B680A449A6066
:103E200000BF1037BD4680BD003801401F85EB51F3
:103E300080B485B000AF0346FB800023FB60B7F978
:103E40000630842B05D0B7F90620FB6813440333F2
:103E5000FB60FB6818461437BD4680BC704780B5D0
:103E600000AF00F0F1FA0023184680BDF0B589B02C
:103E700004AF786039607B685B69002B20D07B6879
:103E80009B69002B1CD07B685C687B681D687B6825
:103E90001E697B68B3F908301846FFF7C9FF014671
:103EA0007B685B697A6892690292019300913B6832
:103EB00032462946204600F0E8F80346FB601CE045
:103EC0007B685C687B681D687B681B699EB27B6849
:103ED000B3F908301846FFF7ABFF024607F10C03B1
:103EE000019300923B6832462946204600F02AF9A9
:103EF0000346012B01D0002300E0FB68184614376D
:103F0000BD46F0BD80B584B000AF78607B68FB60D3
:103F1000FB68002B01D0FB6800E00123184600F08D
:103F20005FFA002318461037BD4680BD80B483B0C9
:103F300000AF78607B6803F108027B685A607B6899
:103F40004FF0FF329A607B6803F108027B68DA6009
:103F50007B6803F108027B681A617B6800221A60A3
:103F600000BF0C37BD4680BC704780B483B000AF43
:103F700078607B6800221A6100BF0C37BD4680BCA8
:103F8000704780B485B000AF786039607B685B684B
:103F9000FB603B68FA685A60FB689A683B689A6005
:103FA000FB689B683A685A60FB683A689A603B68AD
:103FB0007A681A617B681B685A1C7B681A6000BFAC
:103FC0001437BD4680BC704780B485B000AF7860C0
:103FD00039603B681B68BB60BB68B3F1FF3F03D12E
:103FE0007B681B69FB600CE07B680833FB6002E0C8
:103FF000FB685B68FB60FB685B681B68BA689A4299
:10400000F6D2FB685A683B685A603B685B683A685E
:104010009A603B68FA689A60FB683A685A603B6845
:104020007A681A617B681B685A1C7B681A6000BF3B
:104030001437BD4680BC704780B485B000AF78604F
:104040007B681B69FB607B685B687A6892689A6032
:104050007B689B687A6852685A60FB685B687A681C
:104060009A4203D17B689A68FB685A607B68002299
:104070001A61FB681B685A1EFB681A60FB681B68A4
:1040800018461437BD4680BC704780B58EB004AF6B
:10409000F860B9607A603B607B6B002B0AD14FF00F
:1040A000500383F31188BFF36F8FBFF34F8F3B62D1
:1040B00000BFFEE7BB6B002B0AD14FF0500383F328
:1040C0001188BFF36F8FBFF34F8FFB6100BFFEE717
:1040D000A0233B613B69A02B0AD04FF0500383F330
:1040E0001188BFF36F8FBFF34F8FBB6100BFFEE737
:1040F0003B69BB6B002B1ED07B6B002B1BD0BB6BBB
:104100007B627B6A7A6B1A637B6A022283F89D204A
:10411000002303937B6A029307F1140301933B6B23
:1041200000933B687A68B968F86800F051F8786ADB
:1041300000F0ECF801E000237B617B69184628372A
:10414000BD4680BD80B58CB004AFF860B9603B60FF
:104150001346FB80FB889B00184600F099FE7861AF
:104160007B69002B0ED0A02000F092FEF861FB6965
:10417000002B03D0FB697A691A6305E0786900F0C7
:1041800053FF01E00023FB61FB69002B17D0FB69A3
:10419000002283F89D20FA8800230393FB69029391
:1041A000FB6A0193BB6A00933B68B968F86800F04A
:1041B0000FF8F86900F0AAF80123BB6102E04FF0A4
:1041C000FF33BB61BB6918462037BD4680BD000088
:1041D00080B588B000AFF860B9607A603B603B6B37
:1041E0001A6B7B6803F18043013B9B001344BB6166
:1041F000BB6923F00703BB61BB6903F00703002B16
:104200000AD04FF0500383F31188BFF36F8FBFF3D1
:104210004F8F7B6100BFFEE7BB68002B1FD00023E0
:10422000FB6112E0BA68FB69134419783A6BFB69C9
:10423000134434330A461A70BA68FB6913441B7876
:10424000002B06D0FB690133FB61FB690F2BE9D919
:1042500000E000BF3B6B002283F8432003E03B6B90
:10426000002283F83420BB6A062B01D90623BB62E7
:104270003B6BBA6ADA623B6BBA6A5A643B6B0022E8
:104280009A643B6B04331846FFF76FFE3B6B1833A1
:104290001846FFF76AFE3B6B3A6B1A61BB6AC3F1C3
:1042A00007023B6B9A613B6B3A6B5A623B6B002295
:1042B000C3F898203B6B002283F89C203B6B4C3367
:1042C0004C220021184601F01FF83B6B0C4A1A657E
:1042D0003B6B0C4A5A653B6B0B4A9A653A68F96826
:1042E000B86900F01FFC02463B6B1A60FB6A002BAA
:1042F00002D0FB6A3A6B1A6000BF2037BD4680BD12
:10430000E41200204C130020B413002080B582B0CA
:1043100000AF786000F0FAFC2A4B1B680133294A91
:104320001360294B1B68002B09D1274A7B68136057
:10433000244B1B68012B10D100F0CCFA0DE0234B6D
:104340001B68002B09D1204B1B68DA6A7B68DB6A8B
:104350009A4202D81C4A7B6813601D4B1B680133CC
:104360001B4A13607B68DB6A01229A40194B1B6869
:104370001343184A13607B68DA6A13469B001344A0
:104380009B00154A1A447B68043319461046FFF710
:10439000F8FD00F0EBFC0D4B1B68002B0ED00A4B18
:1043A0001B68DA6A7B68DB6A9A4207D20B4B4FF0D4
:1043B00080521A60BFF34F8FBFF36F8F00BF083773
:1043C000BD4680BD90060020900500209C06002080
:1043D000AC060020980600209405002004ED00E0C3
:1043E00080B584B000AF78600023FB607B68002B51
:1043F00017D0134B1B68002B0AD04FF0500383F3E8
:104400001188BFF36F8FBFF34F8FBB6000BFFEE714
:1044100000F084F80021786800F01EFB00F08CF8B2
:10442000F860FB68002B07D1064B4FF080521A60F2
:10443000BFF34F8FBFF36F8F00BF1037BD4680BDF6
:10444000B806002004ED00E080B58AB004AF002378
:10445000BB6000237B603A46391D07F1080318460C
:10446000FBF77EFE39687B68BA68029201930023ED
:10447000009300230A4621492148FFF706FE034620
:10448000204A13601F4B1B68002B02D001237B6165
:1044900001E000237B617B69012B1BD14FF05003AE
:1044A00083F31188BFF36F8FBFF34F8F3B6100BF62
:1044B000154B1B684C33154A1360154B4FF0FF32F8
:1044C0001A60144B01221A60134B00221A6000F08C
:1044D000ABFB0EE07B69B3F1FF3F0AD14FF0500315
:1044E00083F31188BFF36F8FBFF34F8FFB6000BF63
:1044F000FEE700BF1837BD4680BD00BFB45D0008B1
:10450000A5480008B4060020900500205C000020AB
:10451000B00600209C0600209406002080B400AF66
:10452000044B1B680133034A136000BFBD4680BCC7
:10453000704700BFB806002080B584B000AF0023EC
:10454000FB600023BB60414B1B68002B0AD14FF07E
:10455000500383F31188BFF36F8FBFF34F8F3B601E
:1045600000BFFEE700F0D2FB384B1B68013B374A27
:104570001360364B1B68002B61D1354B1B68002B39
:104580005DD02EE0334BDB68DB68FB60FB681833E3
:104590001846FFF751FDFB6804331846FFF74CFD42
:1045A000FB68DB6A01229A402B4B1B6813432A4AA3
:1045B0001360FB68DA6A13469B0013449B00274A8A
:1045C0001A44FB68043319461046FFF7DAFCFB680F
:1045D000DA6A234B1B68DB6A9A4202D3214B012221
:1045E0001A601C4B1B68002BCCD1FB68002B01D040
:1045F00000F012FA1C4B1B687B607B68002B10D00C
:1046000000F036F80346002B02D0164B01221A6048
:104610007B68013B7B607B68002BF1D1124B002251
:104620001A60104B1B68002B09D00123BB600F4B95
:104630004FF080521A60BFF34F8FBFF36F8F00F0BF
:1046400095FBBB6818461037BD4680BDB8060020F4
:1046500090060020500600209806002094050020B7
:1046600090050020A4060020A006002004ED00E034
:1046700080B586B000AF00237B614E4B1B68002BDA
:1046800040F08E804C4B1B6801333B614A4A3B69CA
:1046900013603B69002B20D1484B1B681B68002B23
:1046A0000AD04FF0500383F31188BFF36F8FBFF32D
:1046B0004F8F3B6000BFFEE7404B1B68FB60404BE9
:1046C0001B683E4A13603E4AFB6813603D4B1B6803
:1046D00001333C4A136000F09FF93B4B1B683A6979
:1046E0009A4248D3354B1B681B68002B04D1364BCC
:1046F0004FF0FF321A603EE0304B1B68DB68DB682E
:10470000BB60BB685B687B603A697B689A4203D296
:104710002D4A7B6813602EE0BB6804331846FFF710
:104720008BFCBB689B6A002B04D0BB68183318460F
:10473000FFF782FCBB68DB6A01229A40234B1B68AF
:104740001343224A1360BB68DA6A13469B00134482
:104750009B001F4A1A44BB68043319461046FFF7F2
:1047600010FCBB68DA6A1B4B1B68DB6A9A42B9D340
:1047700001237B61B6E7174B1B68DA6A14491346BD
:104780009B0013449B000B441B68012B01D90123A0
:104790007B61114B1B68002B07D001237B6104E078
:1047A0000E4B1B6801330D4A13607B69184618379E
:1047B000BD4680BDB80600209406002048060020B3
:1047C0004C060020A8060020B00600209806002015
:1047D0009405002090050020A4060020A0060020DB
:1047E00080B487B000AF294B1B68002B03D0284B47
:1047F00001221A6044E0264B00221A60254B1B68F8
:10480000FB60FB68B3FA83F3FB72FB7AC3F11F030F
:104810007B6121497A6913469B0013449B000B443A
:104820001B68002B0AD14FF0500383F31188BFF3AC
:104830006F8FBFF34F8F7B6000BFFEE77A6913462F
:104840009B0013449B00144A13443B613B695B6823
:104850005A683B695A603B695A683B6908339A4217
:1048600004D13B695B685A683B695A603B695B6885
:10487000DB680A4A1360094B1B684C33084A136013
:1048800000BF1C37BD4680BC704700BFB806002083
:10489000A406002098060020940500209005002022
:1048A0005C00002080B582B000AF786000F052F864
:1048B000064B1B68012BF9D9054B4FF080521A604B
:1048C000BFF34F8FBFF36F8FF0E700BF9405002059
:1048D00004ED00E080B582B000AF00237B600CE007
:1048E0007A6813469B0013449B00124A13441846EF
:1048F000FFF71CFB7B6801337B607B68062BEFD9DD
:104900000D48FFF713FB0D48FFF710FB0C48FFF7AE
:104910000DFB0C48FFF70AFB0B48FFF707FB0B4B9F
:10492000054A1A600A4B054A1A6000BF0837BD469F
:1049300080BD00BF94050020200600203406002022
:1049400050060020640600207C0600204806002057
:104950004C06002080B582B000AF19E000F0D6F917
:10496000104BDB68DB687B607B6804331846FFF71D
:1049700063FB0D4B1B68013B0B4A13600B4B1B6821
:10498000013B0A4A136000F0F1F9786800F010F872
:10499000064B1B68002BE1D100BF00BF0837BD46A6
:1049A00080BD00BF6406002090060020780600202D
:1049B00080B584B000AF78607B684C33184600F057
:1049C000BBFC7B6893F89D30002B08D17B681B6B88
:1049D000184600F029FB786800F026FB18E07B6899
:1049E00093F89D30012B03D1786800F01DFB0FE098
:1049F0007B6893F89D30022B0AD04FF0500383F36D
:104A00001188BFF36F8FBFF34F8FFB6000BFFEE7CE
:104A100000BF1037BD4680BD80B483B000AF0C4BE3
:104A20001B681B68002B04D10A4B4FF0FF321A6041
:104A300008E0074B1B68DB68DB687B607B685B68B2
:104A4000044A136000BF0C37BD4680BC704700BFEE
:104A500048060020B006002080B584B000AF786022
:104A60003960294B1B68FB60284B1B6804331846D0
:104A7000FFF7E2FA0346002B0BD1244B1B68DB6ADD
:104A8000012202FA03F3DA43214B1B681340204A48
:104A900013607B68B3F1FF3F0AD13B68002B07D05E
:104AA0001A4B1B68043319461A48FFF76AFA26E0C6
:104AB000FA687B681344BB60144B1B68BA685A6081
:104AC000BA68FB689A4209D2134B1A680F4B1B68ED
:104AD000043319461046FFF777FA10E00F4B1A68B7
:104AE0000A4B1B68043319461046FFF76DFA0C4B4E
:104AF0001B68BA689A4202D2094ABB68136000BFB9
:104B00001037BD4680BD00BF9406002090050020F0
:104B1000980600207C0600204C0600204806002055
:104B2000B006002080B485B000AFF860B9607A604C
:104B3000FB68043BFB60FB684FF080721A60FB6807
:104B4000043BFB60BB6823F00102FB681A60FB6852
:104B5000043BFB60084AFB681A60FB68143BFB607F
:104B60007A68FB681A60FB68203BFB60FB681846AC
:104B70001437BD4680BC70477D4B000880B485B0BB
:104B800000AF00237B60124B1B68B3F1FF3F0AD0DC
:104B90004FF0500383F31188BFF36F8FBFF34F8F34
:104BA000FB6000BFFEE74FF0500383F31188BFF3B3
:104BB0006F8FBFF34F8FBB6000BF00BF7B68002BC0
:104BC000FCD000BF00BF1437BD4680BC704700BF9B
:104BD0000C000020000000000000000000000000A9
:104BE000074B19680868B0E8F00F80F30988BFF335
:104BF0006F8F4FF0000080F311884EF00D0E70475C
:104C00009005002000BF00BF06480068006880F3E0
:104C1000088862B661B6BFF34F8FBFF36F8F00DFB6
:104C200000BF00BF08ED00E080B584B000AF324B9C
:104C3000FB60FB681B78DBB27B60FB68FF221A70AD
:104C4000FB681B78DBB2FB70FB78DBB203F0500330
:104C5000DAB22A4B1A702A4B07221A6009E0284B55
:104C60001B68013B264A1360FB78DBB25B00DBB2BA
:104C7000FB70FB78DBB203F08003802BEFD0204B7E
:104C80001B68C3F10703042B0AD04FF0500383F3D2
:104C90001188BFF36F8FBFF34F8FBB6000BFFEE77C
:104CA000174B1B681B02164A1360154B1B6803F455
:104CB000E063134A13607B68DAB2FB681A70114B29
:104CC0001B68104A43F4700313600E4B1B680D4AB7
:104CD00043F07043136000F0B9F80B4B00221A60E8
:104CE000FFF792FFFFF77CFDFFF748FF0023184610
:104CF0001037BD4680BD00BF00E400E0BC060020C8
:104D0000C006002020ED00E00C00002080B483B03D
:104D100000AF4FF0500383F31188BFF36F8FBFF3E1
:104D20004F8F7B6000BF0F4B1B6801330D4A136030
:104D30000C4B1B68012B0FD10B4B1B68DBB2002BFC
:104D40000AD04FF0500383F31188BFF36F8FBFF386
:104D50004F8F3B6000BFFEE700BF0C37BD4680BCF5
:104D6000704700BF0C00002004ED00E080B483B069
:104D700000AF114B1B68002B0AD14FF0500383F397
:104D80001188BFF36F8FBFF34F8F7B6000BFFEE7CB
:104D9000094B1B68013B084A1360074B1B68002B3B
:104DA00005D100233B603B6883F3118800BF00BF3F
:104DB0000C37BD4680BC70470C000020000000008E
:104DC000EFF30980BFF36F8F0D4B1A6820E9F00FE6
:104DD00010602DE908404FF0500080F31188FFF774
:104DE000FFFC4FF0000080F31188BDE8084019680F
:104DF0000868B0E8F00F80F30988BFF36F8F704741
:104E00009005002000BF00BF80B582B000AF4FF01A
:104E1000500383F31188BFF36F8FBFF34F8F7B6015
:104E200000BFFFF725FC0346002B03D0064B4FF0D5
:104E300080521A6000233B603B6883F3118800BFF7
:104E400000BF0837BD4680BD04ED00E080B400AF70
:104E50000A4B00221A600A4B00221A60094B1B6899
:104E6000094AA2FB03239B09084A013B1360034B39
:104E700007221A6000BFBD4680BC704710E000E00A
:104E800018E000E000000020D34D621014E000E0C4
:104E900080B58AB000AF78600023FB61FFF73EFB6E
:104EA0005B4B1B68002B01D100F020F9594B1A68AD
:104EB0007B681340002B40F093807B68002B1DD053
:104EC00008227B6813447B607B6803F00703002B98
:104ED00014D07B6823F0070308337B607B6803F002
:104EE0000703002B0AD04FF0500383F31188BFF360
:104EF0006F8FBFF34F8F7B6100BFFEE77B68002B96
:104F00006ED0454B1B687A689A4269D8434B3B6226
:104F1000424B1B687B6204E07B6A3B627B6A1B68D6
:104F20007B627B6A5B687A689A4203D97B6A1B68FA
:104F3000002BF1D1364B1B687A6A9A4250D03B6AFB
:104F40001B6808221344FB617B6A1A683B6A1A607B
:104F50007B6A5A687B68D21A08235B009A421FD981
:104F60007A6A7B681344BB61BB6903F00703002BBB
:104F70000AD04FF0500383F31188BFF36F8FBFF354
:104F80004F8F3B6100BFFEE77B6A5A687B68D21A8D
:104F9000BB695A607B6A7A685A60B86900F008F9A0
:104FA0001D4B1A687B6A5B68D31A1B4A13601A4B45
:104FB0001A681B4B1B689A4203D2174B1B68184A8E
:104FC00013607B6A5A68134B1B681A437B6A5A60EA
:104FD0007B6A00221A60134B1B680133114A13606D
:104FE000FFF7AAFAFB6903F00703002B0AD04FF082
:104FF000500383F31188BFF36F8FBFF34F8FFB60B4
:1050000000BFFEE7FB6918462837BD4680BD00BFDC
:10501000CC120020E0120020D0120020C412002088
:10502000D4120020D812002080B586B000AF78607E
:105030007B687B617B68002B4DD008235B427A69DB
:1050400013447B617B693B613B695A68244B1B6855
:105050001340002B0AD14FF0500383F31188BFF3A4
:105060006F8FBFF34F8FFB6000BFFEE73B691B688C
:10507000002B0AD04FF0500383F31188BFF36F8FDA
:10508000BFF34F8FBB6000BFFEE73B695A68144B0C
:105090001B681340002B1ED03B691B68002B1AD1E4
:1050A0003B695A680E4B1B68DB431A403B695A60E8
:1050B000FFF734FA3B695A680A4B1B681344094AE4
:1050C0001360386900F074F8074B1B680133064A17
:1050D0001360FFF731FA00BF1837BD4680BD00BF2F
:1050E000E0120020D0120020DC12002080B485B035
:1050F00000AF4FF44063BB60274BFB60FB6803F0DD
:105100000703002B0CD0FB680733FB60FB6823F020
:105110000703FB60BA68FB68D31A1F4A1344BB60DD
:10512000FB687B601D4A7B6813601C4B00225A6041
:105130007B68BA681344FB600822FB689B1AFB601B
:10514000FB6823F00703FB60FB68154A1360144BF0
:105150001B6800225A60124B1B6800221A607B6891
:105160003B603B68FA68D21A3B685A600C4B1A687D
:105170003B681A603B685B680A4A13603B685B687F
:10518000094A1360094B4FF000421A6000BF143700
:10519000BD4680BC704700BFC4060020C41200207A
:1051A000CC120020D4120020D0120020E0120020E7
:1051B00080B485B000AF7860274BFB6002E0FB68ED
:1051C0001B68FB60FB681B687A689A42F7D8FB682B
:1051D000BB60FB685B68BA6813447A689A4208D17E
:1051E000FB685A687B685B681A44FB685A60FB6816
:1051F0007B607B68BB607B685B68BA681A44FB684D
:105200001B689A4218D1FB681A68144B1B689A42B3
:105210000DD07B685A68FB681B685B681A447B6822
:105220005A60FB681B681A687B681A6008E00B4BC1
:105230001A687B681A6003E0FB681A687B681A606A
:10524000FA687B689A4202D0FB687A681A6000BFED
:105250001437BD4680BC7047C4120020CC12002019
:105260000CB430B5174B0C1E1D689DB008DA8B23AB
:105270004FF0FF302B601DB0BDE8304002B07047EA
:105280004FF40273ADF814300CBF234604F1FF3322
:10529000049307934FF6FF7302900690ADF8163013
:1052A000284621AB209A02A9019300F023FA431C5F
:1052B000BCBF8B232B60002CDDD00022029B1A7018
:1052C000D9E700BF5C0000200EB46FF0004100B5CC
:1052D0009CB01DAB029006900791049108480949C3
:1052E00053F8042B0591006802A9019300F002FA1B
:1052F0000022029B1A701CB05DF804EB03B07047EB
:105300005C0000200802FFFF03460244934200D1E4
:10531000704703F8011BF9E7024610B514781346ED
:105320000132002CFAD1013B11F8012B03F8012FB7
:10533000002AF9D110BD0000294B70B51B68044646
:1053400083424BD0C36943B1DB68002B44D1E3698E
:10535000196811B1204600F07FF8616911B120464B
:1053600000F07AF8E16911B1204600F075F8216B80
:1053700011B1204600F070F8616B11B1204600F0C9
:105380006BF8A16B11B1204600F066F8A16C11B169
:10539000204600F061F8616C11B1204600F05CF825
:1053A000E16A11B1204600F057F8236AB3B12046F4
:1053B000BDE870401847495941B90435E369802D6B
:1053C000D968F8D1204600F047F8C0E70E682046BB
:1053D00000F042F83146EFE70025EFE770BD00BF6F
:1053E0005C000020014B1868704700BF5C00002083
:1053F00070B500260C4D0D4C641BA410A64209D1BB
:1054000000F07AFC00260A4D0A4C641BA410A64248
:1054100005D170BD55F8043B98470136EEE755F8C5
:10542000043B98470136F2E7305E0008305E000822
:10543000305E0008345E0008704770470A449142AD
:1054400000F1FF3300D1704710B511F8014B9142C4
:1054500003F8014FF9D110BD38B50546002940D0F9
:1054600051F8043C0C1F002BB8BFE41800F0DCF826
:105470001C4A136833B9636014602846BDE838409D
:1054800000F0D8B8A34208D9206821188B4201BF88
:1054900019685B6809182160EDE71A465B680BB173
:1054A000A342FAD911685018A0420BD120680144D8
:1054B000501883421160E0D118685B68084410609E
:1054C0005360DAE702D90C232B60D6E72068211855
:1054D0008B4201BF19685B680918216063605460E2
:1054E000CBE738BD2414002070B50E4E0C46316851
:1054F000054611B900F0AAFB30602146284600F0AD
:10550000A5FB431C0AD0C41C24F00304A04207D00E
:10551000211A284600F09AFB013001D14FF0FF34E8
:10552000204670BD281400202DE9F843CD1C25F03D
:10553000030508350C2D38BF0C25002D074601DB6F
:10554000A94205D90C2300263B603046BDE8F8830C
:10555000DFF8D08000F068F8D8F800301C465CBB5B
:1055600029463846FFF7C0FF431C044655D1D8F8FA
:1055700000402646002E45D1002C48D023683146F5
:10558000384604EB030900F061FB81453FD12168F7
:1055900038466D1A2946FFF7A7FF013037D0236838
:1055A0002B442360D8F80030002B38D05A68A24230
:1055B0002BD100225A600FE02268521B1FD40B2A05
:1055C00017D96119A342256018BF5960636808BFE5
:1055D000C8F8001062514B60384604F10B0600F029
:1055E00029F826F00706231DF21AAED09B1BA35004
:1055F000ABE7A3426268DDD1C8F80020ECE72346A0
:105600006468ACE734467668B4E71346CCE70C230D
:1056100038463B6000F00EF897E72560DCE75B60FA
:10562000FFDE00BF241400200148FFF705BF00BFC4
:10563000201400200148FFF700BF00BF2014002005
:105640002DE9F0471F468E688246BE420C469046C2
:105650000B682CD88A8912F4906F26D06569096985
:1056600005EB4505A3EB010905EBD5757B1C4B4408
:105670006D109D4238BF1D46530527D52946FFF7BB
:1056800053FF064660B34A462169FFF7D7FEA38958
:1056900023F4906343F08003A38126614E44266087
:1056A0003E466561A5EB0905A560BE4200D93E46B0
:1056B00032464146206800F0AFFA0020A3689B1BE9
:1056C000A360236833442360BDE8F0872A4600F0D6
:1056D000DBFA06460028E0D150462169FFF7BCFE00
:1056E0000C23CAF80030A3894FF0FF3043F0400389
:1056F000A381E9E72DE9F04F98468B8907461B0601
:105700000D4614469DB00ED50B6963B94021FFF7D5
:105710000BFF2860286120B90C233B604FF0FF305D
:10572000D0E040236B610023099320238DF82930BA
:1057300030234FF00109CDF80C80DFF8A0818DF8FF
:105740002A3023469A4613F8012B0AB1252AF9D1AB
:10575000BAEB040B0BD05B46224629463846FFF7CE
:105760006FFF013000F0A980099A5A4409929AF813
:105770000030002B00F0A18000234FF0FF32CDE974
:1057800005230AF1010A049307938DF853301A9305
:105790005446052214F8011B504800F067FA049A99
:1057A000D8B9D00644BF20238DF85330110744BF29
:1057B0002B238DF853309AF800302A2B15D05446FD
:1057C00000204FF00A0C079A214611F8013B303BAC
:1057D000092B4DD9B0B1079214E0A0EB080309FAE8
:1057E00003F31343A2460493D2E7039B191D1B68DE
:1057F0000391002BBBBF5B4242F002020793079369
:10580000B8BF049223782E2B0CD163782A2B34D185
:10581000039B02341A1D1B680392002BB8BF4FF084
:10582000FF330593DFF8B8A003225046217800F03B
:105830001DFA38B14022049BA0EB0A0082401343BA
:105840000134049314F8011B062226488DF8281011
:1058500000F00CFA002838D0234B1BBB039B073306
:1058600023F0070308330393099B3344099368E744
:105870000C4601200CFB0232A6E700234FF00A0C75
:10588000194601340593204610F8012B303A092AB5
:1058900003D9002BC6D00591C4E7044601230CFBB5
:1058A0000121F0E703AB00932A4638460F4B04A9C9
:1058B000AFF30080421C0646D6D1AB895B063FF5AC
:1058C0002DAF09981DB0BDE8F08F03AB00932A46B9
:1058D0003846064B04A900F07DF8EBE7FA5D0008B6
:1058E000005E0008045E0008000000004156000849
:1058F0002DE9F047164699468A680B690746934298
:10590000B8BF1346336091F843200C46DDF8208081
:105910000AB1013333602368990642BF336802330A
:105920003360256815F0060506D104F1190AE3680D
:1059300032689B1AAB422BDC94F84320131E22687A
:1059400018BF0123920630D44946384604F1430279
:10595000C047013023D02368226903F00603042BDB
:1059600014BF002533684FF0000608BFE56804F156
:105970001A0408BFED1A54F8123C08BF25EAE57571
:105980009342C4BF9B1AED18B5421AD1002008E01B
:105990000123524649463846C047013003D14FF0F3
:1059A000FF30BDE8F0870135C1E73020E11881F80C
:1059B00043005A1C94F845102244023382F84310E5
:1059C000C2E70123224649463846C0470130E6D0A7
:1059D0000136D9E72DE9FF470F7E9146782F8046A3
:1059E0000C469A460C9D01F1430207D8622F0AD853
:1059F000002F00F0D580582F00F0C18004F142053F
:105A000084F842703AE0A7F16303152BF6D801A1A0
:105A100051F823F06D5A0008815A0008FD5900081A
:105A2000FD590008FD590008FD590008815A000879
:105A3000FD590008FD590008FD590008FD590008EE
:105A4000875B0008AD5A0008415B0008FD5900085B
:105A5000FD590008A95B0008FD590008AD5A00086F
:105A6000FD590008FD590008495B00082B681A1D04
:105A70001B682A6004F1420584F842300123A0E04B
:105A800020682B68070603F10401296001D51E6810
:105A900003E04606FBD5B3F90060002E03DA2D23A0
:105AA000764284F843300A23594812E02B68206874
:105AB000191D2960050601D51E6802E04106FBD5C7
:105AC0001E886F2F0CBF08230A235148002184F839
:105AD00043106568002DA8BF2168A560A4BF21F010
